:1000000023C032C031C030C02FC0BEC02DC02CC0F4
:100010002BC02AC029C028C027C026C025C0000088
:100020000000370000000000380002020202020255
:10003000020202020102040810202004100801023A
:10004000000004000000000011241FBECFE5D1E035
:10005000DEBFCDBF20E0A0E6B0E001C01D92A93612
:10006000B207E1F7DBD01EC1CBCFE2E4F0E0249190
:10007000E8E3F0E09491EEE2F0E0E491EE23C1F0E9
:10008000222329F0223009F1A0F42130D1F0F0E050
:10009000EE0FFF1FEC5DFF4FA591B4912FB7F894C1
:1000A000811116C08C91E92FE095E823EC932FBFC6
:1000B0000895233011F0243051F72CB52F7D2CBD3D
:1000C000E6CF2AB52F772ABDE2CF2AB52F7DFBCF09
:1000D000EC91E92BEBCF3FB7F894809165009091BC
:1000E0006600A0916700B091680022B708B601FED3
:1000F00005C02F3F19F00196A11DB11D3FBFBA2FBA
:10010000A92F982F8827BC01CD01620F711D811D79
:10011000911D43E0660F771F881F991F4A95D1F7FD
:1001200008958F929F92AF92BF92CF92DF92EF92FB
:10013000FF92D1DF4B015C018AEFC82ED12CE12C5C
:10014000F12CC9DF681979098A099B09683E734057
:1001500081059105B0F321E0C21AD108E108F10848
:1001600088EE880E83E0981EA11CB11CC114D10436
:10017000E104F10431F7FF90EF90DF90CF90BF9052
:10018000AF909F908F9008951F920F920FB60F928D
:1001900011242F933F938F939F93AF93BF9380919D
:1001A000610090916200A0916300B0916400309171
:1001B000600026E0230F2D3758F50296A11DB11DD2
:1001C000209360008093610090936200A09363008D
:1001D000B09364008091650090916600A0916700E3
:1001E000B09168000196A11DB11D809365009093A8
:1001F0006600A0936700B0936800BF91AF919F9194
:100200008F913F912F910F900FBE0F901F901895D7
:1002100029E8230F0396A11DB11DD2CF78948AB58A
:1002200082608ABD8AB581608ABD83B7826083BFE0
:1002300083B7816083BF89B7826089BF80B78260DE
:1002400080BF80B7816080BF329A319A3098379AE8
:100250008CB580648CBDE8E3F0E02491EEE2F0E040
:100260008491882399F090E0880F991FFC01E25E49
:10027000FF4FA591B491FC01EC5DFF4F85919491E6
:100280008FB7F894EC91E22BEC938FBFC0E0D0E0F5
:1002900081E0EBDE46DF80E0E8DE43DF2097C1F35C
:0802A000AFDEF6CFF894FFCFAA
:00000001FF
